:020000040800F2
:10000000900B00206502000821D0000875C100088F
:100010001DD00008F107000841EB00087702000836
:1000200000000000000000000000000089D400086B
:10003000E90900080000000025D000088DD4000860
:100040008102000881020008810200088102000884
:100050008102000881020008810200088102000874
:100060008102000881020008810200088102000864
:10007000F5090008810200088102000881020008D9
:100080008102000881020008810200088102000844
:100090008102000881020008810200088102000834
:1000A000ED090008810200088102000881020008B1
:1000B00081020008050A0008810200088102000888
:1000C0008102000881020008810200088102000804
:1000D00081020008810200088102000881020008F4
:1000E00081020008810200088102000881020008E4
:1000F00081020008810200088102000881020008D4
:10010000810200088102000891D5000881020008E0
:1001100081020008810200088102000885C10008F0
:1001200079C10008810200088102000881020008EC
:100130008102000881020008810200088102000893
:100140008102000881020008810200088102000883
:100150008102000881020008810200088102000873
:100160008102000881020008810200088102000863
:100170008102000881020008810200088102000853
:100180008102000881020008810200088102000843
:100190008102000881020008810200088102000833
:1001A0008102000881020008810200088102000823
:1001B0008102000881020008810200088102000813
:1001C0008102000881020008810200088102000803
:1001D00081020008810200088102000881020008F3
:1001E00081020008810200088102000881020008E3
:1001F00081020008810200088102000881020008D3
:1002000081020008810200088102000881020008C2
:1002100081020008810200088102000881020008B2
:1002200081020008810200088102000881020008A2
:100230008102000881020008810200088102000892
:100240008102000881020008810200088102000882
:10025000DFF80CD000F08EF8004800477DEB000876
:10026000900B00200748804707480047FEE7FEE75D
:10027000FEE7FEE7FEE7FEE7FEE7FEE7FEE7FEE756
:10028000FEE7000045D50008510200082DE9F05FA7
:100290000546002092469B468846064681464024F5
:1002A0001BE0284641464746224600F053F8534695
:1002B0005A46C01A914110D311461846224600F002
:1002C0003AF82D1A67EB01084F462246012000211B
:1002D00000F031F817EB00094E41201EA4F1010493
:1002E000DFDC484631462A464346BDE8F09F40EAF7
:1002F00001039B0703D009E008C9121F08C0042AA4
:10030000FAD203E011F8013B00F8013B521EF9D28A
:100310007047D2B201E000F8012B491EFBD27047B2
:100320000022F6E710B513460A4604461946FFF7C1
:10033000F0FF204610BD202A04DB203A00FA02F12B
:10034000002070479140C2F1200320FA03F31943C3
:1003500090407047202A04DB203A21FA02F0002165
:10036000704721FA02F3D040C2F1200291400843C5
:10037000194670471CB50948009009480190054688
:10038000009C06E0E06840F0010394E8070098470D
:100390001034AC42F6D3FFF75FFF0000ECF9000821
:1003A0000CFA00080146C06D836F826F13F0500F86
:1003B00008D0D20648BF01F077BB006F826E0846B6
:1003C000104700BF42F40071816701680B68CA687A
:1003D0001B0703D4910707D001F040BB12F4406F14
:1003E000FAD1C9688904F7D4816F21F480718167DB
:1003F000816FC90448BF01F031BB816F41F0010139
:10040000816701F02BBB0000C06D816F41F040019E
:100410008167C16F41F00401C16701F045BB000075
:10042000C06D01F02FBB0000B0B5016804468A68BA
:100430008868C0074FF0000033D012F0020218BFE6
:10044000B0BD886800F00D00012821D188684FF602
:10045000C072C7F6FF721040023088600320086047
:1004600004F0D8F921688968C90704BF0020B0BD2D
:10047000054604E08068C00704BF0020B0BD04F05A
:10048000C9F9411B20680329F4D38168C907F1D059
:10049000A06F40F01000A067E06F40F00100E0673F
:1004A0000120B0BD70B5044600688168C9073FD11E
:1004B0004FF6C076C7F6FF76816806F17F021142DB
:1004C0000AD0A06F40F01000A067E06F40F001007C
:1004D000E067012070BD00BF01210160816841F229
:1004E00000053140C4F2026541F00101A84281607B
:1004F00001D1206AE0B904F08DF948F200022168C8
:10050000C4F2022202F58073994204BF48F200054A
:10051000C4F20225914208BF0D46D5F8082399423E
:10052000054602D112F01F0002D10868C00707D0AB
:10053000002070BD0868C0074FF0000018BF70BDF4
:100540008868C00704D18868304040F001008860A6
:1005500004F060F9401B21680328EBD30868C0074A
:10056000E8D1AEE700281CBF6FF0010070472DE90D
:10057000F04186B040F68C40C4F20260026800246C
:1005800042F0010202600268C4F2022402F0010299
:100590000192019A026801AD42F001020260026814
:1005A000022702F001020192019A82694FF00708C6
:1005B00042F48042826180690E4600F480400190DE
:1005C00001984FF4007001900120039020462946C5
:1005D00002970497CDF8148003F0F2FB4FF480608B
:1005E000CDE9010720462946CDF8148003F0E8FB49
:1005F00040F2A040C2F2000031460CF0F5FC0028A9
:1006000018BF6FF0030006B0BDE8F081B0B586B04A
:10061000022805D96FF00104204606B0B0BD00BF26
:1006200040F68C44C4F2026450B1012812D1216812
:1006300041F002012160216801F0020107E000BFE2
:10064000216841F004012160216801F00401019159
:1006500001991FE00546A06840070FD4A06840F04C
:100660000400A060A06800F004000190019804F06C
:1006700033FEA06820F00400A06001E004F02CFE2E
:10068000206840F040002060206800F040000190A9
:10069000019828464FF2C041C0F6000131F8101011
:1006A00000240191012102914FF2C841C0F60001DE
:1006B00051F820000321049101A9039403F080FB69
:1006C000204606B0B0BD0000022884BF6FF00100D4
:1006D000704780B54FF2C841C0F6000151F82020A4
:1006E0004FF2C041C0F6000131F81010104601224F
:1006F00004F06CF8002080BD022884BF6FF0010078
:10070000704780B54FF2C841C0F6000151F8202073
:100710004FF2C041C0F6000131F81010104604F04D
:100720003FF8002080BD0000002818BF704740F24D
:100730001800C2F2000001218160704700EB400008
:1007400040F28851C2F2000101EB800003F0E0BAF0
:1007500010B586B040F68C42C4F2026213680446BB
:1007600043F004031360126802F004000190019842
:100770004FF40050019040F600004FF00202C4F226
:1007800002200392049239B30021C1F211010291B7
:1007900001A903F015FB04EB440040F28851C2F2BA
:1007A000000101EB80040D21C0F20061204603F03E
:1007B00083FA40F2E9722046C0F60002002103F0FD
:1007C000D1FA18200F21002204F01EFC182004F09A
:1007D00001FC002006B010BD0021029101A903F028
:1007E000EFFA002006B010BD0020FFF79DBF00000B
:1007F000FEE7000041EA00031343002908BF114649
:10080000002818BF014681EA0300000C18BF012030
:10081000704700002DE9F043D2F800C0D0F808E09E
:10082000002953D0BEF1000F4FF0000464D04FF602
:10083000FC7311EA03094FF000074FF0000300F0CA
:10084000B58005684FF6FC732B40BEF1020F4FF0E8
:10085000010455D34B4553D04FF6FF7425EA0406E7
:1008600005274FF6FC7800BF46EA030454F82C50E5
:10087000FC1E744505EA08054ED24D454CD046EAAB
:10088000050353F82C30BC1E744503EA08031AD242
:100890004B4518D046EA030454F82C507C1E74458E
:1008A00005EA080538D24D4536D046EA050353F827
:1008B0002C30774503EA080307F1040402D24B45C4
:1008C0002746D1D1043C1F462B466FE0BEF1000FF6
:1008D0001AD004684FF6FC75BEF1010304EA05075F
:1008E00016D04FF6FF75AC43AEF10205032D03F0B1
:1008F000030813D230E000BF0027002356E000BFFA
:100900001F46002352E000BF00230027002456E0CA
:100910000124002353E000BF2F4647E023F00305E6
:100920004FF6FC7644EA070353F82C30043D03EA03
:10093000060343EA040353F82C3003EA060343EAB0
:10094000040353F82C3003EA060344EA030757F87C
:100950002C7007EA0607E5D13D46B8F1000F24D018
:1009600044EA050353F82C604FF6FC73B8F1010F0D
:1009700006EA030604D1744637462B4616E000BF4C
:1009800044EA060555F82C50B8F1020F03EA0503B6
:1009900004D174461F46334608E000BF1C4354F898
:1009A0002C404FF6FC7504EA0507744639B14FF642
:1009B000FC7631408F421CBF0120BDE8F0834088A7
:1009C000946043EA004147EA00435160D36053F822
:1009D0002C1029B14FF6FC73000419400843106134
:1009E0000020BDE8F0830000704700000020FFF702
:1009F000A5BE0000022003F0C9B9000072B600BF16
:100A0000FEE7000040F22840C2F2000003F018B8F0
:100A100070B582B0044600200190206847F6FF734D
:100A2000C5F2022398420D4612DC48F20001C4F2DE
:100A30000221884227D048F20011C4F202218842E4
:100A400021D041F20001C4F2026188421BD011E0C2
:100A500048F20001C5F20221884214D048F2001188
:100A6000C5F2022188420ED041F20001C5F20261B6
:100A7000884208D04FF21560C0F60000902116465B
:100A80000EF060F8324612F5803F0AD04FF6FF7044
:100A9000824206D04FF21560C0F6000091210EF0A0
:100AA00051F894F87400012802BF022002B070BD12
:100AB000012084F874002046FFF7B6FCA16F18B13E
:100AC00041F0100122E100BF41F2021021EA0000D2
:100AD0000230A06741F20801C4F202612068A1F16E
:100AE0000802904200F0828044F20001CEF204013C
:100AF0000A6809686FF31F3240F255439A420CD0DE
:100B000040F276439A4208D0A2F28142012A00F2D2
:100B1000BF80B1F1405FC0F0BB802046FFF7C2FC50
:100B2000002840F0B0802068092281684FF6C07626
:100B300062F31B618160BFF35F8F206840F2112276
:100B4000D0F8C810C0F2030262F31F21C0F8C81029
:100B5000BFF35F8F2068C7F6FE76D0F8C41041F06F
:100B60008071C0F8C4102046FFF75EFC2168B5F123
:100B7000011F04D18A68324042F480328A608A6858
:100B800006F580331A4042F0004346F67F32C0F249
:100B90002B228B608B68B3F1FF3F74DC019B013328
:100BA0000193019B934200F2AB808B68B3F1FF3F4E
:100BB00069DC019B01330193019B934200F2A08009
:100BC0008B68B3F1FF3F5EDC019B01330193019B16
:100BD000934200F295808B68B3F1FF3F53DC019B99
:100BE00001330193019B9342D4D989E0CA6BC36856
:100BF000C66802F0010526F00302C260466C03F0ED
:100C0000030226F0010343644FF6C0760B68C7F673
:100C1000FE7606F58036334003F1004646F67F3314
:100C2000C0F22B230E608168B1F1FF3F24DC0199F3
:100C3000013101910199994262D88168B1F1FF3F78
:100C40001ADC0199013101910199994258D88168C2
:100C5000B1F1FF3F10DC01990131019101999942F5
:100C60004ED88168B1F1FF3F06DC01990131019155
:100C700001999942D7D943E0C1681143C160416CE1
:100C8000294341640020A16F012262F301013DE08C
:100C900081684FF6C072C7F6FE72114005F48032CB
:100CA000114401F1004246F67F31C0F22B218260EF
:100CB0008268B2F1FF3FE5DC019A01320192019AAC
:100CC0008A421DD88268B2F1FF3FDBDC019A013213
:100CD0000192019A8A4213D88268B2F1FF3FD1DCB7
:100CE000019A01320192019A8A4209D88268B2F1CE
:100CF000FF3FC7DC019A01320192019A8A42D7D99B
:100D0000A06F40F0100020F002010120A167002137
:100D100084F8741002B070BD2DE9F04F81B0044624
:100D200000200090206847F6FF72C5F20222904230
:100D30000D4613DC48F20001C4F20221884228D09B
:100D400048F20011C4F20221884222D041F200018F
:100D5000C4F2026188421CD012E000BF48F20001D8
:100D6000C5F20221884214D048F20011C5F20221D6
:100D700088420ED041F20001C5F20261884208D0DB
:100D80004FF2DD50C0F6000040F6F2410DF0DAFE01
:100D9000206841F20838C4F20268A8F5427B584541
:100DA0001ED06868B0F5007F32DAA0F5807118298E
:100DB00008D8012202FA01F141F24102C0F2041204
:100DC000114234D1182800F21681012101FA00F0F5
:100DD00041F24001C0F20411084228D10BE100BFEA
:100DE000A86810F1FC0118BF002840F0F1802069CC
:100DF000102140F01000C8F20001884240F0D2807B
:100E0000686801380228C0F0118240F6115107E2EB
:100E1000A0F50071182900F2E580012202FA01F123
:100E200041F24102C0F20412114200F0DB80A868D6
:100E3000082807D34FF2DD50C0F6000040F6F74116
:100E40000DF080FEE86810F5803F0BD04FF6FF7183
:100E5000884207D04FF2DD50C0F6000040F6F8415E
:100E60000DF070FE2869052807D34FF2DD50C0F65B
:100E7000000040F6F9410DF065FE20686969C2681E
:100E8000584502F00C0208BF0432500843F6FF72C6
:100E900022FA00F0814207D94FF2DD50C0F600007F
:100EA00040F6FA410DF04EFEE968286811F5803FE2
:100EB0001ED140F2FF11C2F20041884240F60451B7
:100EC0005ADD41F6FF72C3F20062904240F3C680E1
:100ED00047F6FF72C3F60062904240F3498148F240
:100EE0000002C3F60062904240F0AD809EE100BF78
:100EF000FF21C2F20001884240F6FF411CDC0028BD
:100F000000F382804FF6FF72CCF60322904200F38A
:100F1000C78041F6FF72CBF20062904200F3348149
:100F20000122C8F20002904200F0808141F20002EA
:100F3000CBF2002272E100BF4FF6FF72C4F2002232
:100F4000904273DC40F6FF72C3F20022904200F33D
:100F5000B98040F2FF32C2F60022904200F32081B5
:100F600040F20012C2F20002904200F05F8140F2B3
:100F70000022C2F2004251E11F22C1F2004290421F
:100F800000F37E800722C0F60042904200F3DC802E
:100F90000222C0F20042904200F048810422C0F6D2
:100FA00000023BE1A06A0138082807D34FF2DD5068
:100FB000C0F6000040F615510DF0C4FD68684FEA18
:100FC000B0000828C0F0328140F6175128E100BF78
:100FD0004FF2DD50C0F6000040F60C510DF0B2FDAE
:100FE00005E700BFB0F5407F3FF421AF40F2063186
:100FF00088423FF41CAF4FF2DD50C0F6000040F6CF
:10100000F6410DF09FFD12E70F22C1F2000290425F
:101010006CDC0322C0F60002904200F3CD80012870
:1010200000F004810222C0F20042F7E04FF6FF72A6
:10103000C5F20F22904269DC4FF6FF72C4F603221C
:10104000904200F3C3800022C4F20122904200F0DB
:10105000ED800022C4F20262E0E000BF40F2FF72C5
:10106000C2F60062904263DC40F20022C2F200420B
:10107000904200F0DB8040F20042C2F60022CDE058
:101080007F22C1F60042904268DC2022C1F2004279
:10109000904200F0CB804022C1F60002BEE000BFCB
:1010A0004FF6FF72CDF21F62904200F3998000224A
:1010B000CCF60422904200F0B9800022CCF60862FF
:1010C000ACE000BF43F6FF72C3F60022904200F38B
:1010D000918041F20002C3F20022904200F0A6800B
:1010E00042F20002C3F2006298E000BF3F22C1F664
:1010F0000002904200F38A801022C1F20002904266
:1011000000F094802022C1F2004287E04FF6FF7287
:10111000C5F63F22904200F3D5810022C5F210228D
:10112000904200F083800022C5F2206276E000BF8A
:1011300040F60002C2F60062904277D041F200020F
:10114000C3F200226AE000BF0822C0F600429042CB
:101150006CD01022C1F2000260E000BF8022C1F614
:101160000042904262D040F20012C2F2000255E00A
:1011700042F20002C3F20062904257D044F20002F1
:10118000C3F600224AE000BF42F20002CBF2006246
:1011900090424BD044F20002CBF600223EE000BF6A
:1011A00040F20042C2F6002290423FD040F60002D8
:1011B000C2F6006232E000BF0422C0F60002904294
:1011C00034D00822C0F6004228E000BF0022C4F656
:1011D000042290422AD00022C4F608621EE000BF1A
:1011E0000022CDF22062904220D00022CDF2207267
:1011F00014E000BF44F20002C3F60022904215D072
:1012000048F20002C3F6006208E000BF4022C1F6C7
:10121000000290420AD08022C1F60042904205D0DE
:101220004FF2DD50C0F600000DF08CFC94F8740015
:10123000012805D10221084601B0BDE8F08F00BFAA
:101240000121206884F874108168490700F1268321
:101250002E6858455AD096FAA6F1B1FA81F13202B9
:1012600008BFB10E01F01F010122C36902FA01F1AA
:101270001943C16169681F27C1F3012201F01F01F1
:1012800000EB8202C6F38466136B8F40BB4306FA01
:1012900001F1194311638168826801F0040102F0D1
:1012A0000802891840F0D2812968AA68C1F3406712
:1012B0000E0291FAA1F307EB8706B3FA83F308BF96
:1012C000C1F38463714203EB410100EB870301EB3F
:1012D00041015F6907268E40B74302FA01F13943A5
:1012E0005961D5E90412C368042940F09D80016E5C
:1012F000026EB1F1404F4FEAD261C0F0EF8001229F
:101300008A40C2F384621143F5E000BF6968226934
:1013100002292DD142F010011022C8F200029142A0
:1013200008D1C6F384610122836A02FA01F123EA3B
:1013300001018162B6F1FF3F00F337820121D8F845
:101340000020C8F200018E4200F060830021CCF63C
:1013500004218E4200F054830021CCF608618E42B5
:1013600040F06083D8F8000002F0A07152E300BFA3
:10137000102342F01002C8F200039A4240F09C8110
:1013800096FAA6F1B1FA81F1320208BFB10E01F06E
:101390001F010122836A02FA01F119438162A968DF
:1013A0004FF60C50CFF6FF7058F8002001EA0621E6
:1013B00022EA0622114448F8001058462968B1F183
:1013C000FF3F00F3F28148F20002C4F2022202F56C
:1013D000807302F54277984208BFB846904208BF32
:1013E000B846D8F8002042F20003CBF200639942DD
:1013F00002F0E07308BF12F4000700F05B8244F2D1
:101400000007CBF60027B94240F088820027B7EBEF
:10141000136F40F08382D8F8000020F0E07018438A
:1014200040F08070F9E200BF062707EA530300EBA3
:10143000810029684FF078479A40036E07EA41011E
:1014400003F0E063114319430166E86940F08070DE
:10145000B0F1807F40F0DA81A87E022880F0E2813E
:10146000687E022807D34FF2DD50C0F6000040F638
:1014700046510DF067FB20682A6900F16001EB69B5
:1014800051F8227027F080773B4341F82230AB7E41
:101490002A69012B50D16B7E51F82270002B27F066
:1014A000007708BF07F1007741F822702A69012B05
:1014B00051F8227027F0806708BF07F1806741F874
:1014C0002270C3E00022C5F6402290423FF4AEAE47
:1014D000B0F1BD4F3FF4AAAEA2E600BF01238B409E
:1014E00043EA8161B2F1A04F28BF41F0007191FA47
:1014F000A1F1B1FA81F12A6892FAA2F3B3FA83F367
:10150000170208BFC2F38463994207D1016E02F04B
:10151000F84201F0E06141EA42010166416E426E2B
:10152000B1F1404F4FEAD26114D301228A40C2F395
:10153000846211431BE000BF51F8223023F0007396
:1015400041F822302A6951F8223023F0806341F8B3
:1015500022307BE001238B4043EA8161B2F1A04F4E
:1015600028BF41F0007191FAA1F1B1FA81F12A6826
:1015700092FAA2F3B3FA83F3170208BFC2F38463AB
:10158000994207D1416E02F0F84201F0E06141EA70
:1015900042014166816E826EB1F1404F4FEAD261E5
:1015A00006D301228A40C2F3846211430DE000BFDA
:1015B00001238B4043EA8161B2F1A04F28BF41F083
:1015C000007191FAA1F1B1FA81F12A6892FAA2F3BD
:1015D000B3FA83F3170208BFC2F38463994207D1B9
:1015E000816E02F0F84201F0E06141EA4201816659
:1015F000C16EC26EB1F1404F4FEAD26106D30122F3
:101600008A40C2F3846211430DE000BF01238B4086
:1016100043EA8161B2F1A04F28BF41F0007191FA15
:10162000A1F1B1FA81F12A6892FAA2F3B3FA83F335
:10163000170208BFC2F38463994207D1C16E02F05A
:10164000F84201F0E06141EA4201C1668168C907E0
:1016500040F0AB80EB68D5F800C04FF6FF71D0F8D2
:10166000C07003F01806C0F20F012CF07F42F14069
:10167000974301EA0C01394313F5803FC0F8C010CD
:1016800040F09080002A59D09CFAACF1B1FA81F177
:101690004A1C02F01E03092B4FEA816356D803F15E
:1016A000806102F01F02012301F0F84103FA02F207
:1016B00042EA010356E000BFD4F8883001F01F076A
:1016C0000F22BA4023EA020296FAA6F3B3FA83FA8B
:1016D000D4F828C05346C6F384695FEA062E08BFD3
:1016E0004B46BB40BCEB910F42EA0302C4F8882092
:1016F0007FF655AE324677460BF0ACF92068A96804
:1017000058453FF44DAEC6F34062002F08BFCA46AD
:1017100002EB820300EB82025B420AEB4303576950
:1017200003EB430307269E40B74399403943516179
:101730002968B1F1FF3F38DC45E600BF012101EB2C
:101740009C62634602F01E010A29A8D303F180615E
:1017500002F01F02012301F0F84103FA02F21143E3
:1017600041F00073AA68584522D0C3F340671E02B7
:1017700093FAA3F107EB8706B1FA81F108BFC3F32F
:101780008461734201EB430100EB870301EB4101EC
:101790005F6907268E40B74302FA01F13943596168
:1017A000D5F800C0BCF1FF3F12DD00217BE000BF97
:1017B0004FF60C51CFF6FF7158F8017002EA032280
:1017C00027EA03273A4448F80120BCF1FF3FECDC4C
:1017D00048F20006C4F2022606F58071424606F57C
:1017E0004273884208BF1A46B04208BF1A4648F200
:1017F0000013156840F48071C4F2022399421FD18E
:10180000B168D6F808710F4320E000BF4FF2DD50F9
:10181000C0F6000040F644510DF094F9A87E02286D
:10182000FFF41EAE4FF2DD50C0F6000040F6455109
:101830000DF088F9687E0228BFF415AE1BE600BFE4
:101840004FF60051CFF6FF7158F80170F90725D116
:101850000021CCF608618C4505F0E07708BF15F44F
:10186000000169D00021CCF604218C4540F0A8800D
:101870000021B1EB176F40F0A380B04207D041F2D6
:101880000001C4F20261884218BF98428DD11068ED
:1018900020F0E070384340F08070ADE0A06F01218F
:1018A00040F02000A067002084F87400084601B0D2
:1018B000BDE8F08FD8F8007027F0E0773B4343F4A1
:1018C0000003C8F8003040F21003C2F200031B68A6
:1018D00042F663579B09C0F23E57A3FB07376FF0F0
:1018E000010303EA57130093009B002B3FF45DAF05
:1018F000009B013B0093009BCBB1009B013B0093FD
:10190000009BA3B1009B013B0093009B7BB1009B1C
:10191000013B0093009B002BEAD108E00127C8F2AD
:101920000007B94208BF12F4800700F08F8000233F
:10193000CDF22073994279E0B04208D041F2000123
:10194000C4F20261884218BF98427FF42EAF10683B
:1019500042F6635120F0E070384340F4000010601C
:1019600040F21000C2F200000068C0F23E5180094F
:10197000A0FB01018809022101EB40000021009039
:10198000009800288FD00098013800900098002817
:101990003FF40BAF009801380090009800283FF406
:1019A00004AF009801380090009800283FF4FDAE85
:1019B00000980138009000980028E4D173E700BF38
:1019C0000121C8F200018C454FF0000108BF15F459
:1019D00080057FF468AFB04208D041F20001C4F244
:1019E0000261884218BF98427FF4DFAE106820F091
:1019F000E070384340F480001060002153E700BFDE
:101A0000D8F8000002F4400104E000BFD8F800005C
:101A100002F0C07120F0E0700844C8F80000002116
:101A200041E700BF0021CDF220718E424FF000014E
:101A300008BF12F480027FF436AFD0F8D01041F026
:101A40000101C0F8D01000212DE700BFD8F8000038
:101A500020F0E070184340F48000DEE740F29C3153
:101A6000C2F20001884218BF704740F27A00C2F209
:101A7000000040F2180100F5C870C2F200010861D0
:101A80007047000040F29C31C2F20001884218BF4A
:101A9000704740F2180040F27A01C2F20000C2F230
:101AA000000101617047000070470000002804BF7A
:101AB000012070472DE9F04182B00446006847F6E6
:101AC000FF71C5F2022141F200088842C4F20268A7
:101AD0000EDC48F20001C4F20221884222D048F212
:101AE0000011C4F2022188421CD040451AD011E0F6
:101AF00048F20001C5F20221884213D048F20011D9
:101B0000C5F2022188420DD041F20001C5F2026106
:101B1000884207D04FF2DD50C0F6000040F2A71116
:101B20000DF010F860684FEAB0400C2836D2A0687B
:101B30004FEAB00005283ED294F82400022846D28D
:101B4000A06B4FEAB02004284ED22168206941459D
:101B500056D0022868D2E06844F20A01884270D266
:101B6000E06B042807D34FF2DD50C0F6000040F2CE
:101B7000B1110CF0E7FF606BA0F580614FEA7111C5
:101B80001129C0F0098112390429C0F0058100280B
:101B900000F002814FF4D971F8E000BF4FF2DD5040
:101BA000C0F600004FF4D4710CF0CCFFA0684FEAEF
:101BB000B0000528C0D34FF2DD50C0F6000040F25F
:101BC000A9110CF0BFFF94F824000228B8D34FF2FB
:101BD000DD50C0F600004FF4D5710CF0B3FFA06BE0
:101BE0004FEAB0200428B0D34FF2DD50C0F6000019
:101BF00040F2AB110CF0A6FF216820694145A8D145
:101C0000B0F1FF3F2ADCB0F1004F2CD01021C8F218
:101C10000001884227D04FF2DD50C0F600004FF49B
:101C2000DB710CF08FFF1EE04FF2DD50C0F60000BC
:101C300040F2AF110CF086FFE06844F20A018842DE
:101C40008ED34FF2DD50C0F600004FF4D8710CF087
:101C500079FFE06B0428BFF486AF8CE7002818BF3B
:101C6000B0F5001FD7D1606940F0200020281BD1BB
:101C700094F84000022823D2206A04282BD2E06E78
:101C80004FEAB000042833D2606BB0F5986F3BDBAD
:101C9000B0F5A86F46DB53D0B0F5B06F18BFB0F504
:101CA000B86F4DD044E000BF4FF2DD50C0F60000E9
:101CB00040F2B7110CF046FF94F840000228DBD345
:101CC0004FF2DD50C0F600004FF4DC710CF03AFF2B
:101CD000206A0428D3D34FF2DD50C0F6000040F252
:101CE000B9110CF02FFFE06E4FEAB0000428CBD3FF
:101CF0004FF2DD50C0F600004FF4DD710CF022FF12
:101D0000606BB0F5986FC3DAB0F5886F04DAB8B1DC
:101D1000B0F5806F14D00BE012D0B0F5906F0FD0FB
:101D200006E000BFB0F5986F0AD0B0F5A06F07D0FD
:101D30004FF2DD50C0F6000040F2BB110CF002FF84
:101D4000A06E40F00050B0F1005F07D1A06C0828F1
:101D50000FD2E06C082817D21EE000BF4FF2DD5012
:101D6000C0F600004FF4DE710CF0ECFEA06C082809
:101D7000EFD34FF2DD50C0F6000040F2BD110CF081
:101D8000E1FEE06C082807D34FF4DF714FF2DD501D
:101D9000C0F600000CF0D6FEA069042818BF082881
:101DA00010D1606C40F48050B0F5805F18D1207F76
:101DB000022820D294F85400022828D2206980BB3F
:101DC00065E000BF4FF2DD50C0F600004FF4E07157
:101DD0000CF0B8FE606C40F48050B0F5805FE6D047
:101DE0004FF2DD50C0F6000040F2C1110CF0AAFE27
:101DF000207F0228DED34FF2DD50C0F600004FF402
:101E0000E1710CF09FFE94F854000228D6D34FF2F3
:101E1000DD50C0F6000040F2C3110CF093FE2069C3
:101E2000A8B394F82C00022807D34FF2DD50C0F677
:101E3000000040F2C7110CF085FE2068404517D025
:101E4000A06A0138102807D34FF2DD50C0F6000019
:101E50004FF4E5710CF076FE94F82C00012816D1B1
:101E6000206B0138082812D340F2CD1109E000BFE1
:101E7000206901280BD1A06A0138102807D34FF43C
:101E8000EA714FF2DD50C0F600000CF05BFE94F8F2
:101E90002C0001280BD194F82400012807D14FF21F
:101EA000DD50C0F600004FF4ED710CF04BFEA06F5A
:101EB00030B9204600F086FA0020E06784F874000C
:101EC0002168886880004FF6C070C5F6FF7002D5A3
:101ED0008A6802408A608A68D2002ED48A6800F13B
:101EE0008050104040F08050886040F21000C2F2F4
:101EF0000000006842F663528009C0F23E52A0FB27
:101F000002029009022202EB400001900198A0B168
:101F1000019801380190019878B101980138019039
:101F2000019850B1019801380190019828B10198A9
:101F30000138019001980028EAD18868C00009D4CE
:101F4000A06F40F01000A067E06F40F00100E06774
:101F5000012000E000208A68A36F02F0040203F071
:101F60001003D218A26F1BD122F481720232A26731
:101F70008A68D20746D148F20002C4F20222914296
:101F800007D0414514D048F20013C4F2022399420D
:101F900020D19368D2F808613343DB071ED031E0CB
:101FA00042F01000A067012002B0BDE8F08100BF40
:101FB000D4E90123D8F80C60920C013B9B0863F331
:101FC0008306C8F80C60D8F8083362F39543C8F864
:101FD000083317E0D8F80830DB0713D102F5807317
:101FE00099424346666804BF48F20003C4F20223E4
:101FF000914208BF0B46D3F8082322F470123243F3
:10200000C3F80823414500F09F8094F82420636CB6
:1020100094F82C7043EA4232A368012F42EA03028B
:1020200042EA074206D1236B0027CFF6FE7707EB83
:1020300043431A43636B23B1A76B03F478733B43A9
:102040001A43CB684CF21307CFF6F0773B401A43A4
:10205000CA608A688B6802F0040203F00803D21891
:1020600040F00A8148F20017227F41F48073C4F2E5
:102070000227BB42E36B4FEA823218BF5B001A4370
:10208000CB6844F20307BB431A43CA60E2684AB113
:102090000B6F43F6FF77BB431A430A670A6F42F0A0
:1020A00000420A6794F85420012A40F0DB80A16DB9
:1020B000B1F5806F80F04E81E16D4FEA71110C290E
:1020C00080F05981216E41F40071B1F5007F40F03C
:1020D0006481616E40F2014241F4806191420AD014
:1020E0004FF2DD51C0F600010546084640F20131CD
:1020F0000CF028FD2846616B09B1A16B61B9216E16
:1021000051B14FF2DD51C0F600010546084640F2DC
:1021100007310CF017FD28462168D4E916C3D4E92D
:102120001876D4F868E00A694FF61E05CFF6004528
:102130002A401A4342EA0C423A43324342EA9E02A0
:1021400042F0010291E000BF94F824C0237F4FEADF
:102150004C3646EA8333D4E90465676C26F00042C6
:10216000B6F1FF3FC8BF4FF400122B4394F8406014
:10217000002F18BF43F480531A4394F82C3042EADE
:102180004606012B0BD1BCF1000F00F01381A26FAA
:1021900042F02002A267E26F42F00102E267626B46
:1021A00022B1A36B02F4E0721A431643CA6848F2E4
:1021B0000D03CFF6DE731A403243CA60226A12B1B1
:1021C0004B6C1A434A64E26E12B14B6C1A434A6478
:1021D00094F8541001291FD1A16D81F000414FEAFC
:1021E000B101082980F08680E16D4FEA711109295B
:1021F00080F09180216E41F40072B2F5007F40F0D2
:102200009C80D4E91623A76ED4F800801A431143AA
:10221000394341F0010100E00021D8F810204FF6C9
:102220000243CFF2FF731A401143C8F81010D8F8D8
:102230001410D4E9123721F007021A432169C8F8B3
:102240001420D8F81420B1F5001F22F0700242EAE1
:102250000712C8F814201BD059BBD8F8281061F019
:102260000F0124E00A6922F001020A610A69236D64
:1022700022F070421A430A6122690B6B012A23F093
:102280000F0202BFA36A013B1A430A631CE000BFAE
:10229000D8F82810A16A1C2202EB8101D4F888200A
:1022A00001F01C016FF00F0303FA01F11143C8F8AC
:1022B0002810D8F80C104FF6F372C8F23F321140D4
:1022C000B14209D10021E167A16F012262F301014E
:1022D000A16702B0BDE8F081A06F40F0100020F0CF
:1022E0000200A067E06F40F00100E067012002B04B
:1022F000BDE8F0814FF2DD51C0F600010546084609
:1023000040F23D310CF01EFC2846E16D4FEA7111A0
:102310000929FFF46FAF4FF2DD51C0F60001054609
:10232000084640F23E310CF00DFC2846216E41F487
:102330000072B2F5007F3FF464AF4FF2DD51C0F69A
:1023400000010546084640F23F310CF0FBFB216ED0
:10235000284656E74FF2DD51C0F600010546084613
:1023600040F2FE210CF0EEFB2846E16D4FEA7111C0
:102370000C29FFF4A7AE4FF2DD51C0F6000105466F
:10238000084640F2FF210CF0DDFB2846216E41F4A7
:102390000071B1F5007F3FF49CAE4FF2DD51C0F605
:1023A0000001054608464FF440710CF0CBFB28466F
:1023B0008FE600BF46F48036626B002A7FF4F1AEF0
:1023C000F4E6000070B5D8B00446002640F60005DB
:1023D00038A86C21CDE95666CDE95466C4F20225D1
:1023E0005396FDF79DFF02A80830D021FDF798FF16
:1023F000206805F5F041884202D058B070BD00BF9A
:102400004FF4004002904FF480402F9002A80396B2
:1024100003F084FF002818BFFEF7F0FA40F68C4066
:10242000C4F202600168002641F480610160016825
:1024300001F4806101910199016841F0040101609A
:10244000006853A900F00400019001980520539002
:10245000032054902846559601F0B2FC2120CDE986
:102460003806CDE93A663C964996CDE94366CDE912
:102470004566479640F23C064FF40020C2F2000643
:102480003D9001204FF4803106F118053E903F91B8
:10249000CDE9410038A8294600F054F9002818BFBA
:1024A000FEF7ACFA304600212A4601F06FF800280A
:1024B00018BFFEF7A3FA40F23C00C2F2000001F0A0
:1024C00083F9002818BFFEF799FA40F228405021FE
:1024D000C2F20000C4F2020101604FF48001002248
:1024E0008123C0E90E12C0E91022836400F0FEFBD4
:1024F000002818BFFEF782FA40F22845C2F2000514
:1025000040F23C01C2F20001284601F0E5F8002843
:1025100018BFFEF773FA284610212567EC6501F015
:1025200057FA002818BFFEF769FA58B070BD0000CE
:102530002DE9F0479CB048F200050446C4F202259C
:10254000006805F5807305F54277984241F20C0A60
:102550003B46C4F2026A18BF0AF53F73A84208BF9F
:102560003B4647F6FF77C5F202271E68B8420FDCEC
:10257000A8421FD048F20013C4F20223984219D097
:1025800041F20003C4F20263984213D032E000BF6C
:1025900048F20003C5F2022398420BD048F2001320
:1025A000C5F20223984205D041F20003C5F202634E
:1025B00098421FD1806840072CD494F874000128F9
:1025C00028D006F01F060120092E84F874000AD8CE
:1025D000B04040F22123184205D02046884691465B
:1025E000FDF760FFD0B1002084F8740001201CB01A
:1025F000BDE8F0874FF2DD50C0F60000884640F697
:102600005F1117460CF09EFA206841463A468068F2
:102610004007D2D502201CB0BDE8F0872168A06F2A
:1026200040F60172904341F20002C4F2026200F5EA
:1026300080709142A06717D048F20010C4F20220C7
:1026400081424A4603D1002E18BFA94203D1A06F90
:1026500020F48010A067A06FC00452BF0020E06F7C
:1026600020F0060002E000BF00204A46E067206F2D
:1026700040F2A533C0F6000340F22147036640F262
:102680000943C0F60007C0F60003C0E919731C2314
:102690000B60002384F874304B68AAF10C0743F0F8
:1026A0001003B9424B6005D1DAF8003043F0010362
:1026B000CAF8003090F850301B0607D48369012B0C
:1026C00018D0022B08BF4FEA820915E0406F78B19D
:1026D000016869B101A800F05DFA00287FF486AFB7
:1026E000079801281AD0022808BF4FEA890917E085
:1026F000012006E04FEA4209403142464B4601F0D4
:1027000073FA21684FF6C0738A68C7F6FF731A40E0
:1027100004328A601CB0BDE8F08700BF4FEA490967
:10272000206F2268416F40320968C1E90292C1F806
:10273000108001F0D5F8E4E700680069C0F30740B5
:1027400070470000F0B581B0054600284FF0010049
:102750001CBF0C46002901D101B0F0BD286811381A
:10276000112819D8012101FA00F00121C0F203015A
:10277000084211D0286940F00800082819D168697A
:1027800040F40020B0F5002F21D1A869032829D2F8
:10279000E86988BB37E000BF4FF28860C0F60000F0
:1027A00040F225410CF0CEF9286940F008000828D5
:1027B000E5D04FF28860C0F600004FF485610CF060
:1027C000C1F9686940F40020B0F5002FDDD04FF268
:1027D0008860C0F6000040F229410CF0B3F9A86906
:1027E0000328D5D34FF28860C0F6000040F22A419A
:1027F0000CF0A8F9E86930B1B0F5803F18BFB0F52A
:10280000003F40F09381E86B30B1B0F5006F18BF26
:10281000B0F5805F40F098816868B0F5007F09D01E
:102820007C2807D34FF28860C0F6000040F22D41AB
:102830000CF088F9E86830B1B0F5007F18BFB0F54A
:10284000806F40F08B81286B800007D04FF288604A
:10285000C0F6000040F22F410CF074F9A86840F473
:102860000060B0F5006F40F05381686B38B14FF2F3
:102870008860C0F6000040F231410CF063F928781E
:10288000800633D5686A0138402807D34FF2886044
:10289000C0F6000040F236410CF054F9A86A013845
:1028A000402807D34FF28860C0F6000040F237415D
:1028B0000CF048F9A86B4DF6FF71CFF2FF310842DA
:1028C00007D04FF28860C0F600004FF487610CF02B
:1028D00039F9E86A6FF04021084207D04FF288606A
:1028E000C0F6000040F239410CF02CF9686C30B1B0
:1028F000B0F1807F18BFB0F1007F40F03D81B8B1EA
:10290000286C4FEAB030042807D34FF28860C0F635
:1029100000004FF488610CF015F9A86C3B2807D330
:102920004FF28860C0F6000040F241410CF00AF915
:102930002878800747D5E86C40F2FF71013888425B
:1029400007D34FF28860C0F6000040F247410CF018
:10295000F9F8286D41F6FF76304443F6FF77B84228
:1029600007D34FF28860C0F600004FF489610CF085
:10297000E9F8686D3044B84207D34FF28860C0F67A
:10298000000040F249410CF0DDF8A86D4FF6FF77EA
:102990004FF6FF76C0F201063844B04207D34FF23B
:1029A0008860C0F6000040F24A410CF0CBF8E86DB8
:1029B0003844B04207D34FF28860C0F6000040F2BE
:1029C0004B410CF0BFF8D5E90420E969AB69084335
:1029D000E96B08431043184320602978890614D511
:1029E00005F124030ECB4FF07C76AF6B06EB025261
:1029F0004FF47C7606EB011102F07C723B4301F44C
:102A00007C711A431143084320606868296B40F2C7
:102A10007F22104008436060E968B1F5007F05D06F
:102A2000B1F5806F04D12A78920601D50843606021
:102A3000696C41B1AA6C2B6C02F03F02184340EA6A
:102A4000024008436060B5F86810A16028788007EC
:102A500040F20000C0F2FF7021D5EA6C4FF08053C5
:102A600000EB024202401143A1602A6D03EAD20248
:102A70004FF000531144A1606A6D03EA92024FF0D7
:102A800080431144A160AA6D03EA52021144A1607F
:102A9000EA6DB2F1FF3FDCBF01F10041A160296E98
:102AA000E160696E216129688A0703D44FF4A06050
:102AB00028E000BF296D00F1C050002948BF4942FD
:102AC0006FF35F3161616A6D1304002A48BF02FB36
:102AD00000F3184008436061A86D0022002848BF39
:102AE000404280B2A061E96D0B04002948BFA2EB0F
:102AF00001431844A061296888074FF4E06058BF7B
:102B00004FF4A06008432062002001B0F0BD00BF78
:102B10004FF28860C0F600004FF486610CF012F8A6
:102B2000686B00287FF4A3AEA9E600BF4FF288606F
:102B3000C0F6000040F22B410CF004F8E86B0028CE
:102B40007FF463AE68E600BF4FF28860C0F6000015
:102B500040F22C410BF0F6FF5EE600BF4FF28860BA
:102B6000C0F6000040F22E410BF0ECFF286B800015
:102B70007FF46CAE72E600BF4FF28860C0F60000D2
:102B800040F23D410BF0DEFF686C00287FF4B8AEE8
:102B9000CEE6000000284FF0010218BF002901D145
:102BA0001046704791F820C042F20002C0F800C001
:102BB0000B68C0F6004203F0080303610B6803F4DE
:102BC000002343610B6803F0030383610B6803F484
:102BD0004033C3610B68C3F30513013343620B68D1
:102BE000C3F30553013383620B6803F04023C362D0
:102BF0000B681A4082630A6802F4C052C2634B68D1
:102C00009A0509D403F07F0242604A79520754BF03
:102C100000224FF4806202E04FF400724260C26012
:102C20004A685FEA8C7302F4006282604A6802F4C8
:102C3000404202644A6802F040724264CA8802F06C
:102C40003F0282644A6802F0404202630A89826657
:102C50000CD40122C264CA68026609690022416676
:102C6000C0E91422C0E916221046704780B54A898F
:102C70006FF3DF220132C264CA6802660A694266E3
:102C80004B696FF35F330365B1F816C06FF35F3CB8
:102C9000C0F854C0D1F808E05FEACE0203D55A422A
:102CA0000265D1F808E05FEA8E0244BFCCF1000271
:102CB0004265B1F818E0C0F858E08A694FEA124C52
:102CC000C0F85CC08A68530003D5CEF1000282656B
:102CD0008A68B2F1FF3FBDE88040C4BF0020704762
:102CE000CCF10001C16500207047000070B50446BA
:102CF00001F090FD002C04BF012070BD0546206846
:102D00004F26C5F20206B04226DC40F24F51C4F213
:102D10000201884246DC40F2CF21C4F2020188421F
:102D200000F3808040F24F11C4F20201884240F368
:102D3000DB8040F25011C4F20201884200F0318180
:102D400040F2D011C4F20201884200F02A8140F220
:102D50005021C4F2020121E140F24F51C5F20201BB
:102D600088423FDC40F2CF21C5F20201884273DC89
:102D700040F24F11C5F20201884240F3BF8040F299
:102D80005011C5F20201884200F00B8140F2D011CF
:102D9000C5F20201884200F0048140F25021C5F2E0
:102DA0000201FBE040F2CF71C4F2020188426DDC07
:102DB00040F24F61C4F20201884240F3A98040F220
:102DC0005061C4F20201884200F0EB8040F2D06111
:102DD000C4F20201884200F0E48040F25071C4F273
:102DE0000201DBE040F2CF71C5F20201884265DCEE
:102DF00040F24F61C5F20201884240F3958040F2F3
:102E00005061C5F20201884200F0CB8040F2D061EF
:102E1000C5F20201884200F0C48040F25071C5F250
:102E20000201BBE040F2CF31C4F20201884240F31C
:102E3000878040F2D031C4F20201884200F0B180B4
:102E400040F25041C4F20201884200F0AA8040F2F0
:102E5000D041C4F20201A1E040F2CF31C5F202013B
:102E6000884279DD40F2D031C5F20201884200F09B
:102E7000988040F25041C5F20201884200F09180F2
:102E800040F2D041C5F2020188E000BF45F2CF0117
:102E9000C4F2026188426BDD45F2D001C4F20261E6
:102EA00088427ED045F25011C4F20261884278D047
:102EB00045F2D011C4F2026170E000BF45F2CF01CB
:102EC000C5F2026188425FDD45F2D001C5F20261C0
:102ED000884266D045F25011C5F20261884260D046
:102EE00045F2D01158E000BF5021C4F202018842DF
:102EF00057D0D021C4F2020150E000BF5021C5F2EA
:102F0000020188424DD0D021C5F2020146E000BF47
:102F100040F25051C4F20201884242D040F2D051F6
:102F2000C4F202013AE000BF40F25051C5F2020182
:102F3000884236D040F2D051C5F202012EE000BFE7
:102F400040F2D021C4F2020188422AD040F250312E
:102F5000C4F2020122E000BF40F2D021C5F202011A
:102F600088421ED040F25031C5F2020116E000BF87
:102F700040F2D071C4F20201884212D045F25001F1
:102F8000C4F202610AE000BF40F2D071C5F2020152
:102F9000884206D045F25001C5F20261884240F0F5
:102FA000EB82A06B002818BFB0F5800F06D0B0F5FB
:102FB000000F18BFB0F5400F40F0D680E06B40F432
:102FC0008030B0F5803F40F0DE80606C800007D03C
:102FD0004FF28860C0F6000040F271210BF0B2FDA4
:102FE000A06C20F00100802807D04FF28860C0F666
:102FF000000040F272210BF0A5FD2068B0421DDCFC
:1030000040F24F41C4F20201884233DC40F24F21CA
:10301000C4F2020188425FDC40F24F11C4F20201A7
:10302000884200F3BD805021C4F20201884200F0C2
:103030001181D021C4F202010AE100BF40F24F41E8
:10304000C5F2020188422FDC40F24F21C5F2020195
:10305000884255DC40F24F11C5F20201884200F36C
:10306000AB805021C5F20201884200F0F380D021EC
:10307000ECE000BF40F24F61C4F20201884251DC33
:1030800040F24F51C4F20201884200F39F8040F2A7
:103090005041C4F20201884200F0DC8040F2D0418D
:1030A000C4F20201D4E000BF40F24F61C5F2020158
:1030B000884249DC40F24F51C5F20201884200F3D8
:1030C000918040F25041C5F20201884200F0C28076
:1030D00040F2D041BAE000BF40F24F31C4F20201E9
:1030E000884200F3898040F25021C4F202018842F4
:1030F00000F0B08040F2D021C4F20201A8E000BF8D
:1031000040F24F31C5F20201884200F3818040F263
:103110005021C5F20201884200F09C8040F2D0218B
:1031200094E000BF40F24F71C4F20201884279DCA2
:1031300040F25061C4F20201884200F08B8040F2FC
:10314000D061C4F2020183E040F24F71C5F2020186
:10315000884273DC40F25061C5F20201884279D0A6
:1031600040F2D06172E000BF4FF28860C0F600000C
:1031700040F26F210BF0E6FCE06B40F48030B0F5DC
:10318000803F3FF422AF4FF28860C0F600004FF45A
:103190001C710BF0D7FC606C80007FF419AF1FE747
:1031A00040F25011C4F20201884253D040F2D011D3
:1031B000C4F202014CE000BF40F25011C5F202011E
:1031C000884247D040F2D01140E000BF40F2505159
:1031D000C4F2020188423DD040F2D051C4F2020153
:1031E00036E000BF40F25051C5F20201884231D0B2
:1031F00040F2D0512AE000BF40F25031C4F2020147
:10320000884227D040F2D031C4F2020120E000BF52
:1032100040F25031C5F2020188421BD040F2D03159
:1032200014E000BF40F25071C4F20201884211D094
:1032300040F2D071C4F202010AE000BF40F2D07146
:10324000C5F20201884205D040F25071C5F2020178
:1032500088420CD1206C6FF40031084207D04FF245
:103260008860C0F6000040F276210BF06BFC002075
:1032700084F84C00022084F854002068416941F031
:103280000601416120684169C9070BD001F0C2FA0B
:10329000401B0528F6D9012003221021A16584F8DE
:1032A000542070BDD4E90E12B04241EA02011DDC87
:1032B00040F24F42C4F20202904233DC40F24F220D
:1032C000C4F2020290425DDC40F24F12C4F20202EC
:1032D000904200F39B805022C4F20202904200F020
:1032E000EF80D022C4F20202E8E000BF40F24F4279
:1032F000C5F2020290422FDC40F24F22C5F20202D8
:10330000904251DC40F24F12C5F20202904200F3AB
:1033100089805022C5F20202904200F0D180D02272
:10332000CAE000BF40F24F62C4F2020290424BDC9E
:1033300040F24F52C4F20202904200F37D8040F20C
:103340005042C4F20202904200F0BA8040F2D042F1
:10335000C4F20202B2E000BF40F24F62C5F20202C4
:10336000904243DC40F24F52C5F2020290426FDCC1
:1033700040F25042C5F20202904200F0A18040F2B9
:10338000D04299E040F24F32C4F20202904269DC2E
:1033900040F25022C4F20202904200F0918040F2CA
:1033A000D022C4F2020289E040F24F32C5F202029A
:1033B000904263DC40F25022C5F20202904200F0DB
:1033C0007F8040F2D02277E040F24F72C4F20202D6
:1033D00090425DDC40F25062C4F2020290426FD033
:1033E00040F2D062C4F2020268E000BF40F24F72C5
:1033F000C5F20202904257DC40F25062C5F202026E
:1034000090425DD040F2D06256E000BF40F25012D0
:10341000C4F20202904253D040F2D012C4F202022F
:103420004CE000BF40F25012C5F20202904247D079
:1034300040F2D01240E000BF40F25052C4F202020B
:1034400090423DD040F2D052C4F2020236E000BFBA
:1034500040F25052C5F20202904231D040F2D052B6
:103460002AE000BF40F25032C4F20202904227D05C
:1034700040F2D032C4F2020220E000BF40F25032EB
:10348000C5F2020290421BD040F2D03214E000BFDD
:1034900040F25072C4F20202904211D040F2D07257
:1034A000C4F202020AE000BF40F2D072C5F202028A
:1034B000904205D040F25072C5F20202904201D112
:1034C000226C1143426922F44302114341610021FD
:1034D0000164626C426440F24F62C5F202029042A3
:1034E0008164C164016511DC40F24F71C4F20201D4
:1034F00088421BDC40F25061C4F2020188422DD0A8
:1035000040F2D061C4F2020126E000BF40F24F71E8
:10351000C5F20201884215DC40F25061C5F2020199
:1035200088421BD040F2D06114E000BF40F25071DD
:10353000C4F20201884211D040F2D071C4F20201FB
:103540000AE000BF40F2D071C5F20201884205D006
:1035500040F25071C5F20201884202D1002141655A
:1035600081650021C167A06C012220650020A16552
:1035700084F8542070BD00BF4FF28860C0F6000090
:1035800040F26E210BF0DEFA0BE500000346002846
:103590004FF0010018BF002A00D170475869012878
:1035A00004D1042018610120704700BF2DE9F043C9
:1035B00085B01C681F4620460D461646FDF71AF9D1
:1035C00030B105203861012005B0BDE8F08300BFAF
:1035D000BC464CB194F820202B4630464DB193F8B0
:1035E00020108A4205D02DE02B4630462DB193F8AD
:1035F000202090F820108A4224D102218CF80C104F
:103600000021CCF81010016A40F200084A08CFF6F9
:10361000010862F3596801F0020162F39A6801F14E
:103620000509BCB113B36A4660461946CDF800904F
:10363000FDF7F0F820B306203861012005B0BDE8A1
:10364000F08300BF0420CCF81000012005B0BDE8D5
:10365000F08300BF13B34FF6FC71084040EA080046
:10366000CCF8003043F82900022029E04FF6FC7125
:10367000214041EA080140F82910CCF800001CE084
:103680000298B968BC4688420CD1DCF8040068B1E5
:103690004FF6FC71084040EA080005E0CCF8000055
:1036A00001200DE055F8290046F829004FF6FC707E
:1036B000304040EA080045F82900DCF808000130F5
:1036C000CCF8080000200121CCF810008CF80C1078
:1036D00005B0BDE8F083000000284FF0010218BFDC
:1036E000002901D11046704790F8542090F85430CA
:1036F000022B18BF052A07D140218165002180F8DF
:103700004C100120704700BF0A7B022A04D101221D
:103710000A611046704700BF026840F24F63C5F26D
:1037200002039A4210DC40F24F73C4F202039A4241
:103730001ADC40F25063C4F202039A422CD040F2E9
:10374000D063C4F2020325E040F24F73C5F20203D6
:103750009A4215DC40F25063C5F202039A421BD034
:1037600040F2D06314E000BF40F25073C4F2020391
:103770009A4211D040F2D073C4F202030AE000BFB3
:1037800040F25073C5F202039A4205D040F2D07362
:10379000C5F202039A420DD1036D4A68812B03D111
:1037A00022B1416700207047002AFAD00420086146
:1037B000012070470A6892F820209207ECD5032078
:1037C0000861012070470000002804BF01207047F5
:1037D000016839B142684AB18A4204BF002070478B
:1037E00007E000BF02210161012070474269012A00
:1037F00004D1042101610120704700BFF0B502220D
:103800000273002202610A6A40F2000E5308CFF6EA
:10381000010E63F3596E02F00202856863F39A6E3B
:10382000531D4FF6FC72002D01EA020C47D0012D0A
:1038300002D1654643E000BF4FF6FF726E1EAC1E1C
:1038400021EA0202032C06F0030401D265461EE0C1
:1038500026F003064FF6FC77654600BF154355F882
:103860002350043E05EA070545EA020555F82350B2
:1038700005EA070545EA020555F8235005EA07055C
:1038800045EA020555F8235005EA0705E6D1B4B12B
:10389000154355F823504FF6FC76012C05EA060532
:1038A0000DD0154355F82350022C05EA060506D025
:1038B0002A4352F823204FF6FC7402EA04054FF61F
:1038C000FF7221EA02022A434EEA0C0741600021FE
:1038D00042F823700161012101730020F0BD000056
:1038E000002804BF0120704780B5D0F874E0BEF115
:1038F000000F54D090F8541002680129D2F814C077
:1039000004D0022946D11CF4803143D090F85410E1
:10391000012935D190F84C1001294FF0020134D023
:10392000012380F84C3080F854108EF80C100021E0
:103930008165CEF81010516941F4BA415161416E70
:1039400019B1516941F400715161006F18B15069AA
:1039500040F400505061DEF800000023016ACFF609
:103960000103490861F3596361F39A634FF6FF71EC
:1039700020EA010111604FF6FC7108401844D0673D
:103980005069002140F001005061BDE880400846C8
:10399000704700BF40218165002180F84C10012153
:1039A000BDE880400846704780B190F85410022965
:1039B0000AD1042180F85410006842F204024169DF
:1039C000114341610020704720218165012070472B
:1039D000002804BF01207047B0B521F00102102A71
:1039E00004D1CA0611D40020B0BD00BF4FF250620E
:1039F000C0F60002044610460D4640F26C510BF032
:103A0000A1F820462946CA06EDD5026840F6FF70A7
:103A100022EA000002F57B62C2F3C412012301F026
:103A20001101112903FA02F1426814BF22EA0101CF
:103A3000114341600020B0BD90F854007047000071
:103A400010B504680C23214604F57B6263F30B0177
:103A5000C2F3C4120968D140C9074BD02169490596
:103A600044BF61695FEA415146D42169090544BFF9
:103A700061695FEA015147D42169C90444BF6169A2
:103A80005FEAC14148D42169490444BF61695FEAE2
:103A9000414149D42169890544BF61695FEA815187
:103AA0004AD42169890444BF61695FEA81414FD4E6
:103AB0002169C90544BF61695FEAC15164D4816D60
:103AC000C1B101684A6942F002024A61012180F8ED
:103AD000541090F85020120644BF426F1173816E4B
:103AE0000022002980F84C2008BF10BDBDE810401E
:103AF000084700BF10BD00BF4FF48061E160816DD9
:103B000041F001018165B0E74FF40061E160816D32
:103B100041F002018165AFE74FF48051E160816DB2
:103B200041F004018165AEE74FF48041E160816DB1
:103B300041F008018165ADE74FF40071E160426E2C
:103B4000002AAED00446904720462468A9E700BF6B
:103B50004FF40051E16090F8541004291ED16169BE
:103B6000012221F400516161616941F0020161614A
:103B700080F8542090F85010090603D5416F0A735D
:103B80000021A164C16EABE790F85010090611D472
:103B9000A16CD9B900F1540216E000BF052180F8EC
:103BA0005410026F002A3FF483AF0446904720462A
:103BB00024687DE7E16F49B9A16C39B9012180F82A
:103BC0005410416F01F10C02012111704FF440714A
:103BD000E160016E0022002980F84C203FF46FAFB5
:103BE0000446884720466AE7002804BF0120704742
:103BF000F0B581B05F1E4FF6FF76B74210D34FF29B
:103C0000506CC0F6000C044660460D4640F2192187
:103C100016461F460AF096FF29463B463246204686
:103C200090F84C70012F03D1022001B0F0BD00BF0D
:103C3000012780F84C7090F85470012F34D102277E
:103C400080F8547000278765D0F800C0476EDCF814
:103C50004860C3EA0603CCF848304FF4FE43CCF882
:103C60000C30CCF84C10CCF85020DCF8141041F497
:103C7000BA41CCF814102FB1DCF8141041F40071E3
:103C8000CCF81410006F28B1DCF8140040F4005098
:103C9000CCF81400DCF8140040F00100CCF814005B
:103CA000002001B0F0BD00BF40218165002180F8F7
:103CB0004C10012001B0F0BDB0B50C464FF6E071DC
:103CC000CFF6FE010C4205460ED04FF61D00C0F6A1
:103CD000000040F2CB110AF035FF002D0EBF01208D
:103CE0002C600020B0BD00BF04F0E060B0F1807F28
:103CF00018BFB0F1C06F07D11E20C0F201002040F4
:103D00001A28E2D2E9E700BFB0F1007FDDD1F3E786
:103D1000F0B581B004460068082202EA503542F24C
:103D20000C07C4F2026700F01F01012057F825209C
:103D300000FA01F6164205D047F8256060680028B1
:103D400018BF8047381D50F82510314208D040F880
:103D50002560A06820B101B0BDE8F040004700BF79
:103D600001B0F0BD022906D0012909D000291CBFED
:103D7000012070474260082142500020704700BF78
:103D8000042142500020704770470000B0B542F255
:103D90000C05C4F2026529680446014203D020469E
:103DA0002C6000F00BF86868204208BFB0BD2046C8
:103DB0006C60BDE8B040FFF7E7BF0000704700004F
:103DC0002DE9F04F85B004464FF6FF70C5F2012093
:103DD0008C4640F2000E844241F2FF3041F2FF3146
:103DE000C4F2026EC5F20220C4F20221CDF808C06E
:103DF0001ADC8C4230DD41F6FF70C4F202208442AE
:103E000058DC41F20040C4F20220844200F0888075
:103E100041F60000C4F20220844200F0818041F6A5
:103E20000040C4F2022078E084422DDD41F6FF70AC
:103E3000C5F2022084424DDC41F20040C5F202206E
:103E400084426DD041F60000C5F20220844267D062
:103E500041F600405FE000BF40F2FF70C4F2022074
:103E6000844247DD40F60000C4F20220844257D06D
:103E700040F60040C4F20220844251D041F20000DA
:103E8000C4F2022049E000BF40F2FF70C5F20220F8
:103E9000844239DD40F60000C5F2022084423FD062
:103EA00040F60040C5F20220844239D041F20000C1
:103EB00031E000BF42F20000C4F2022084422FD061
:103EC00042F20040C4F20220844229D0744527D037
:103ED00000F050BC42F20000C5F2022084421FD024
:103EE00042F20040C5F20220844219D00020C5F2FF
:103EF000026012E00020C4F20220844210D040F29E
:103F00000040C4F2022008E00020C5F202208442F2
:103F100006D040F20040C5F20220844240F02A84DC
:103F2000DCF800000021B1EB104F01D180B260B984
:103F30004FF2E470C0F60000D2210AF003FE40F216
:103F4000000EDDF808C0C4F2026EDCF804004FF683
:103F5000FF71C1F21001884200F3D083122800F2F1
:103F6000F983012101FA00F00F21C0F20601084295
:103F700000F0F083DCF80000002800F0BB8304F1BF
:103F80002001019147F67F71C0F22F0101EA9421CF
:103F90004FF000094FF00108002700264FF0000AFB
:103FA000009104940EE000BFDCF800000AF1010A61
:103FB00030FA0AF106F1020607F1040709F10809CF
:103FC00000F0988308FA0AF110EA0105ECD0744574
:103FD000039531D0DCF8040040F01001122961D1C2
:103FE0004FF6FF70C5F20120844240F3858041F214
:103FF000FF30C5F20220844240F3A68041F6FF71F3
:10400000C5F202218C4200F3FB8041F20041C5F26F
:1040100002218C4200F0688141F60001C5F20221C4
:104020008C4200F0618141F60041C5F202218C42D0
:1040300000F05A8110E200BFDEF80000DCF8042036
:10404000884302F001014FF2D44201FA0AF1C0F6AE
:104050000002084302EBCA01CEF80000D1F804B018
:104060006FF0030052F83A5000EA5B001C2128442C
:1040700001EA8B01026A0F238B409A430B2303FA58
:1040800001F11143016228684FEA4B0103228A4083
:104090009043022202FA01F1084304952860DCF8FB
:1040A00004007BE24FF6FF71C5F201218C4269DD0D
:1040B00041F2FF31C5F202218C4240F3B38041F658
:1040C000FF71C5F202218C4200F3748141F200417C
:1040D000C5F202218C4200F0B38141F60001C5F225
:1040E00002218C4200F0AC8141F60041C5F2022170
:1040F0008C4200F0A58193E141F2FF30C4F202202E
:10410000844241F2FF30C5F202205FDC40F2FF71D1
:10411000C4F202218C4240F3CD8040F60001C4F28B
:1041200002218C4200F0E08040F60041C4F20221FE
:104130008C4200F0D98041F20001C4F202218C428D
:1041400000F0D28088E100BF40F2FF71C5F2022189
:104150008C4240F3A38040F60001C5F202218C425C
:1041600000F0C28040F60041C5F202218C4200F00E
:10417000BB8041F20001C5F202218C4200F0B48004
:104180006AE100BF41F2FF31C4F202218C4267DCD8
:1041900040F2FF71C4F202218C4240F3298140F6C3
:1041A0000001C4F202218C4200F04A8140F6004135
:1041B000C4F202218C4200F0438141F20001C4F2BA
:1041C00002218C4200F03C812AE100BF41F6FF3120
:1041D000C4F202218C4279DD41F60041C4F2022191
:1041E0008C4200F0818042F20001C4F202218C4234
:1041F0007AD042F20041C4F202218C4274D02BE109
:1042000042F20001C5F202218C426DD042F200411F
:10421000C5F202218C4267D00021C5F202618C42B6
:1042200062D019E140F2FF71C5F202218C4240F3E5
:10423000D38040F60001C5F202218C4200F00081DB
:1042400040F60041C5F202218C4200F0F98041F2B3
:104250000001C5F202218C4200F0F280E0E000BFD4
:1042600041F6FF31C4F202218C4240F3CD8041F689
:104270000041C4F202218C4200F0E28042F20001CF
:10428000C4F202218C4200F0DB8042F20041C4F211
:1042900002218C4200F0D480C2E000BF0021C5F2B0
:1042A00002218C4220D040F20041C5F202218C4212
:1042B0001AD0D1E00021C4F202218C4214D040F285
:1042C0000041C4F202218C420ED0C5E041F200410F
:1042D000C4F202218C4207D041F60001C4F202214F
:1042E0008C4240F0B98000BF4FF6FF71C5F201214A
:1042F0008C4240F3CA8084421CDD41F6FF70C5F257
:104300000220844232DC41F20040C5F202208442A5
:1043100000F00E8141F60000C5F20220844200F058
:10432000078141F60040C5F20220844200F000817E
:10433000CAE100BF40F2FF70C5F2022084422BDDCB
:1043400040F60000C5F20220844200F0F18040F601
:104350000040C5F20220844200F0EA8041F20000F1
:10436000C5F20220844200F0E380ADE142F2000099
:10437000C5F20220844200F0DB8042F20040C5F228
:104380000220844200F0D4800020C5F20260844202
:1043900000F0CE8098E100BF0020C5F202208442E8
:1043A00000F0C68040F20040C5F20220844200F0D6
:1043B000BF8089E142F20001C5F202218C423FD068
:1043C00042F20041C5F202218C4239D00021C5F2EF
:1043D00002618C4234D023E00021C5F202218C42DC
:1043E0002ED040F20041C5F202218C4228D017E0C5
:1043F0000021C4F202218C4222D040F20041C4F2DA
:1044000002218C421CD00BE041F20041C4F2022197
:104410008C4215D041F60001C4F202218C420FD02B
:104420004FF2E470C0F6000040F213110AF08AFB6C
:10443000DDF808C040F2000EDCF80400C4F2026EA1
:10444000049B03221968B240914300F00302B2407A
:104450001143D3461960A1E04FF2E470C0F60000AA
:104460004FF480710AF06EFB41F2FF3040F2000E13
:10447000DDF808C0C5F20220C4F2026E4FF6FF71EB
:10448000C5F201218C423FF736AF41F2FF30C4F252
:104490000220844218DC40F2FF70C4F20220844201
:1044A0002CDD40F60000C4F20220844240D040F6E9
:1044B0000040C4F2022084423AD041F20000C4F22B
:1044C0000220844234D0FFE041F6FF30C4F20220E3
:1044D00084421FDD41F60040C4F20220844227D00E
:1044E00042F20000C4F20220844221D042F2004095
:1044F000C4F2022084421BD0E6E000BF0020C4F2D8
:104500000220844214D040F20040C4F202208442CF
:104510000ED0D9E041F20040C4F20220844207D01C
:1045200041F60000C4F20220844240F0CD8000BF7A
:10453000DCF81000A04610280FD34FF2E470C0F64C
:1045400000004FF481710AF0FDFADDF808C040F276
:10455000000EDCF81000C4F2026E6FF0030101EAF5
:104560005A01019D07F01C036A580F249C4000F07B
:104570000F00A243984010436850049B0320196821
:1045800000FA06F2DCF80400914300F00302B240A6
:1045900011431960D34644464FF0010812282ED823
:1045A00008FA00F111F0061F29D0DCF80C000428ED
:1045B0000FD34FF2E470C0F6000040F221110AF070
:1045C000C1FADDF808C040F2000EDCF80C00C4F2BD
:1045D000026E049D4FEA4B02A9680323934099435E
:1045E00090400843A8606968DCF8040008FA0BF200
:1045F000C0F30013914303FA0BF211436960DCF836
:104600000810032808BF01293FF4CEAC03290FD3BB
:104610004FF2E470C0F600004FF49A710AF092FA7B
:10462000DDF808C040F2000EDCF80810C4F2026E9B
:10463000049D4FEA4B02E86803239340984391405E
:104640000843E8609CF80700C0067FF5ADACA346C0
:1046500042F200042AF00300C4F202642044016E16
:1046600009F018020F2393409943009B03FA02F2CA
:10467000114301662068039DDCF8041040EA05023E
:10468000CB0258BF20EA0502226060688B0240EA34
:10469000050258BF20EA05026260D4F884008B034B
:1046A00040EA050258BF20EA0502C4F88420D4F885
:1046B0008000C90340EA050258BF20EA0502C4F899
:1046C00080205C4670E400BF4FF2E470C0F600004A
:1046D00040F201110AF036FA40F2000EDDF808C08F
:1046E000C4F2026EDCF81000A0461028BFF425AF1B
:1046F00033E700BF05B0BDE8F08F00BF4FF6FF7194
:10470000C1F22101884213DC0021C1F2110188426B
:104710003FF430AC0021C1F2120188423FF42AACD0
:104720000021C1F2210188423FF424AC12E000BF15
:104730000021C1F2220188423FF41CAC0021C1F2E9
:10474000310188423FF416AC0021C1F232018842A7
:104750003FF410AC4FF2E470C0F60000D3210AF031
:10476000F1F940F2000EDDF808C0C4F2026EFFF766
:1047700001BC00BF4FF2E470C0F60000D1210AF086
:10478000E1F940F2000EDDF808C0C4F2026EDCF878
:1047900000000021B1EB104F3FF4C8ABFFF7C8BBDE
:1047A000B0B50C46054639B94FF2E470C0F60000CA
:1047B00040F236210AF0C6F9686900EA040124EAE9
:1047C000000040EA0140A861B0BD000070B5164687
:1047D0000C46054641B1022E10D21820002E08BF0B
:1047E00028202C5070BD00BF4FF2E470C0F60000CE
:1047F0004FF400710AF0A6F9022EEED34FF2E470E6
:10480000C0F6000040F201210AF09CF918202C505B
:1048100070BD000040F28870C2F20000006870476E
:10482000B0B50446006845F2FF32C5F2000290427E
:104830000D4619DC49F2FF71C4F2000188422DDCFB
:1048400045F20041C4F20001884254D045F600010F
:10485000C4F2000188424ED048F20041C4F2000187
:10486000884248D040E000BF49F2FF71C5F2000124
:10487000884227DC45F20041C5F2000188423AD067
:1048800045F60001C5F20001884234D048F20041EB
:10489000C5F2000188422ED026E000BF49F6000193
:1048A000C4F20001884226D049F60041C4F200015A
:1048B000884220D042F60001C4F2006188421AD03A
:1048C00012E000BF49F60001C5F20001884212D093
:1048D00049F60041C5F2000188420CD042F60001C1
:1048E000C5F20061884206D04FF2FB60C0F60000BE
:1048F00068210AF027F96FF48050054206D04FF284
:10490000FB60C0F6000069210AF01CF994F8410030
:10491000202803D194F84000012801D10220B0BD25
:10492000242084F841002068016821F00101016021
:10493000016821F480510160016829430160016828
:1049400041F001010160202084F84100002084F83A
:104950004000B0BDB0B50446006845F2FF32C5F274
:10496000000290420D4619DC49F2FF71C4F20001C9
:1049700088422DDC45F20041C4F20001884254D047
:1049800045F60001C4F2000188424ED048F20041D1
:10499000C4F20001884248D040E000BF49F2FF71F4
:1049A000C5F20001884227DC45F20041C5F2000152
:1049B00088423AD045F60001C5F20001884234D061
:1049C00048F20041C5F2000188422ED026E000BF27
:1049D00049F60001C4F20001884226D049F60041A0
:1049E000C4F20001884220D042F60001C4F2006106
:1049F00088421AD012E000BF49F60001C5F200015A
:104A0000884212D049F60041C5F2000188420CD01C
:104A100042F60001C5F20061884206D04FF2FB6009
:104A2000C0F6000096210AF08DF8102D06D34FF243
:104A3000FB60C0F6000097210AF084F894F841006A
:104A4000202803D194F84000012801D10220B0BDF4
:104A5000242084F841002068016821F001010160F0
:104A6000016821F4706141EA05210160016841F0AB
:104A700001010160202084F84100002084F84000FA
:104A8000B0BD00007047000070470000D0F800C0C3
:104A9000DCF81820DCF80030D10503F0800308D5DD
:104AA0003BB1416C41F0010141644FF48071CCF89D
:104AB0001C10510508D53BB1416C41F0080141641F
:104AC0004FF48061CCF81C10910508D53BB1416CC6
:104AD00041F0020141644FF40071CCF81C10416CAC
:104AE00011F00B0F08BF704707F0C2BB0268436BA1
:104AF00091691268002B08BF704718477047000083
:104B0000002804BF0120704710B50446006845F234
:104B1000FF31C5F20001884218DC49F2FF71C4F28E
:104B2000000188422CDC45F20041C4F200018842B9
:104B300054D045F60001C4F2000188424ED048F23C
:104B40000041C4F20001884248D03FE049F2FF71C1
:104B5000C5F20001884227DC45F20041C5F20001A0
:104B600088423BD045F60001C5F20001884235D0AD
:104B700048F20041C5F2000188422FD026E000BF74
:104B800049F60001C4F20001884227D049F60041ED
:104B9000C4F20001884221D042F60001C4F2006153
:104BA00088421BD012E000BF49F60001C5F20001A7
:104BB000884213D049F60041C5F2000188420DD069
:104BC00042F60001C5F20061884207D04FF2C3608F
:104BD000C0F6000040F2262109F0B4FFA068B0F54D
:104BE000806F37D2E068013802283FD2206940F454
:104BF0000040B0F5004F47D16069B0F5807F4FD2DB
:104C0000A069082857D2E06940F40020B0F5002FD1
:104C10005FD1206A40F40030B0F5003F67D194F8CE
:104C2000410000286FD0242084F8410094E8091046
:104C3000E2680168012A21F00101016023F070613E
:104C40000161816821F40041816063D14CF400412D
:104C5000816069E04FF2C360C0F6000040F2272196
:104C600009F070FFE06801380228BFD34FF2C3603B
:104C7000C0F600004FF40A7109F064FF206940F4A7
:104C80000040B0F5004FB7D04FF2C360C0F600004F
:104C900040F2292109F056FF6069B0F5807FAFD35B
:104CA0004FF2C360C0F6000040F22A2109F04AFF2B
:104CB000A0690828A7D34FF2C360C0F6000040F2F5
:104CC0002B2109F03FFFE06940F40020B0F5002FF0
:104CD0009FD04FF2C360C0F600004FF40B7109F093
:104CE00031FF206A40F40030B0F5003F97D04FF21A
:104CF000C360C0F6000040F22D2109F023FF94F8B4
:104D0000410000288FD1002084F84000204600F0A8
:104D100033F888E74CF40441022A816004D14168E9
:104D200041F4006103E000BF416821F4006141608B
:104D3000416804F1100341F0007141F40041416009
:104D4000C16821F40041C1600ECB114341EA032147
:104D5000E269C160216A11430160016841F001010B
:104D6000016000202021606484F84110206384F8F1
:104D7000420010BD70470000B0B5BEB0044602A8A6
:104D800000250830D0213D95CDE93B55CDE9395579
:104D9000FBF7C6FA206845F20041C4F200018842E0
:104DA00002D03EB0B0BD00BF4020029002A80395E3
:104DB00001F0B4FA002818BFFBF720FE40F68C443F
:104DC000C4F20264206839A940F0400020602068E5
:104DD00000F04000019001984FF4C040399012203B
:104DE0003A9000203B9002203C9004203D9041F6F8
:104DF0000000C4F20220FEF7E3FF2069002140F426
:104E0000001020612069002200F400100190019838
:104E1000372000F0F9F8372000F0DCF838200021C6
:104E2000002200F0F1F8382000F0D4F83EB0B0BD18
:104E3000704700007047000010B504466FF0040092
:104E4000044206D04FF69100C0F60000AE2109F0F2
:104E500079FE40F20040C4F203000168C9071CBF9C
:104E6000012010BD016821F00401214301600020F0
:104E700010BD000040F20041C4F20301086840F098
:104E8000010200200A60704740F2040040F288717D
:104E9000C2F20000C2F2000100780A681044086003
:104EA0007047000080B542F20000C4F202000168C1
:104EB00041F480710160032000F0E6F802F0E4FAAA
:104EC00040F62041C4F2026109684FF2A84201F0A5
:104ED0000F01C0F60002515CC84040F21001C2F25E
:104EE00000010860042003F09DFF0F2000F008F887
:104EF00000281CBF012080BD00F056F8002080BDB6
:104F0000B0B540F20405C2F200052978E1B30446C9
:104F10004EF21000CEF200000068400710D403F0FB
:104F2000D9FF022824D001281AD078BB40F2100003
:104F3000C2F20000006829784FF4FA5207E000BF7F
:104F400040F21000C2F2000000684FF47A72B2FB27
:104F5000F1F1B0FBF1F003F0ABFFA8B91BE000BF2B
:104F600028784FF47A71B1FBF0F04FF4FA4106E083
:104F700028784FF47A71B1FBF0F04FF40041B1FBA7
:104F8000F0F003F095FF30B10120B0BD002003F038
:104F90008FFF0028F8D14FF0FF302146002200F0AB
:104FA00033F800206C60B0BD80B582B040F694400C
:104FB000C4F20260016841F004010160006800F081
:104FC00004000190019800F087F902B0BDE880402C
:104FD00000F078B9B0F1FF3F0EDD00F01F010122B3
:104FE000C0F34A1002FA01F14EF20012CEF20002B2
:104FF00042F82010704700BF4FF2A970C0F60000C1
:10500000EE2109F09FBD000070B515460E46102A2E
:10501000044606D34FF2A970C0F60000D92109F06A
:1050200091FD102E06D34FF2A970C0F60000DA21D0
:1050300009F088FD4EF60C50CEF2000001684FF0EA
:10504000FF33C1F3022181F00702042A28BF0422A2
:10505000033903FA02F238BF002126EA02028A402D
:1050600003FA01F125EA0101114304F00F02043AA9
:10507000104404F16042090102F56442002C48BF6B
:1050800000F10C02117070BD10B5044603380528FC
:1050900006D34FF2A970C0F60000C02109F052FDFE
:1050A0004EF60C50CEF2000001684FF6FF021140A0
:1050B00064F30A2141F0806141F0FD71016010BD8F
:1050C00010B540F0020140F63C040229C4F202642B
:1050D0002CD140F21001C2F20001096841F259726C
:1050E000CDF2B712A1FB022198BB54F8340C890B06
:1050F00020F0020044F8340C881C00BF21688907A6
:105100004CD501284AD02168890749D5022847D0C3
:105110002168890746D5032844D021688907A0F172
:10512000040140D504280846E8D13CE04FF656007B
:10513000C0F600004FF4D67109F004FD40F21000F3
:10514000C2F20000006841F25971CDF2B711A0FB24
:105150000101012000EB913154F8340C40F00200C1
:1051600044F8340C206880071DD4E1B12068800722
:1051700010D401290ED0206880070DD402290BD04D
:1051800020688007A1F1040002D403290146E9D177
:10519000411C08E0013906E0023904E0411E02E04A
:1051A000811E00E0C11E0020002908BF032010BDA1
:1051B00010B504464FEA3040042807D34FF6560096
:1051C000C0F600004FF4AD7109F0BCFC40F60C00D5
:1051D000C4F20260016B01F44031A14208D1B4F184
:1051E000011F5DD3016841F480210160002010BDE2
:1051F0000168B4F5803F21F4E02141EA040188BF51
:1052000041F48021016040F21001C2F200010968FE
:1052100041F25972CDF2B712A1FB0212910B0B466B
:105220000468B3F1FF3218BF012224041BD45C1CB4
:1052300019D00468002B1A4618BF0122240412D486
:105240008BB104685A1E18BF012224040BD4012B11
:1052500009D004689A1E18BF0122240403D4022B2B
:10526000A3F10403DCD102B3026B120401F10102C9
:1052700014D49AB1026B120411D481B1026B1204DE
:1052800010D401290ED0026B1204A1F1040202D441
:1052900002291146E8D1911C11B906E0114621B14D
:1052A000002010BD01390029FAD1032010BD0000F3
:1052B00040F62C00C4F20260016841F00101016077
:1052C0007047000040F61000C4F20260016841F02F
:1052D000804101607047000040F61000C4F2026097
:1052E000016841F0005101607047000040F63C0049
:1052F000C4F20260006800F44030704740F62800B5
:10530000C4F20260016821F00101016070470000F1
:1053100040F62800C4F20260016841F0010101601A
:105320007047000070B582B004466FF00070044210
:1053300007D04FF26E70C0F600004FF4626109F0C2
:1053400001FC40F69445C4F202652868460708D47B
:10535000286840F004002860286800F004000190EC
:10536000019840F62800C4F202600068C0070DD121
:10537000FFF7CEFFE86D20F04070204340F08070D2
:10538000E865FFF7BBFF002E09D50CE0E86D20F0C3
:105390004070204340F08070E865002E03D42868F8
:1053A00020F00400286002B070BD0000B0B540F6E7
:1053B000284EC4F2026EDEF80C50DEF80030DEF843
:1053C0000010DEF80020DEF81040D206E40804EAFF
:1053D000E272C1F3032103F003036FF35F3201F1C3
:1053E000010C00EE102A6FF35F25B8EE400ADFE8EB
:1053F00003F003030B0B00BF5EF8201C09025DD411
:10540000DEF8CC100B045BE001EE10CA9FED472ADA
:10541000B8EE411ADEF80C1082EE011A6FF35F212C
:1054200002EE101A9FED403AB8EE422A20EE030A2F
:1054300030EE020AB7EE002A30EE020A21EE000A30
:10544000DEF80010C90360D5DEF80C10C1F3462168
:10545000013101EE101AB8EE411A80EE011ABCEECD
:10546000C11A11EE102A0260DEF80010890352D52D
:10547000DEF80C10C1F30641013101EE101AB8EE4E
:10548000411A80EE011ABCEEC11A11EE102A4260D8
:10549000DEF80010490344D5DEF80C10C1F30661B4
:1054A000013101EE101AB8EE411A80EE010ABCEE8D
:1054B000C00A10EE101A8160B0BD00BF5EF8203C3B
:1054C0004FF25452190FC0F6000202EB810102EEB6
:1054D00010CA91ED001AB8EE422AB8EE411A9FEDBB
:1054E000123A81EE021A02EE105A20EE030AB8EECA
:1054F000422A30EE020AB7EE002A30EE020A20EE0F
:10550000010ADEF80010C9039ED400220260DEF812
:1055100000108903ACD400224260DEF80010490379
:10552000BAD400218160B0BD000000390024744B62
:10553000B0B540F62C4EC4F2026EDEF81050DEF824
:105540000030DEF80010DEF80020DEF81440D2064D
:10555000E40804EAE272C1F3032103F003036FF3EA
:105560005F3201F1010C00EE102A6FF35F25B8EEF7
:10557000400ADFE803F003030B0B00BF5EF8241CB6
:1055800009025DD4DEF8C8100B045BE001EE10CA1E
:105590009FED472AB8EE411ADEF8101082EE011A8C
:1055A0006FF35F2102EE101A9FED403AB8EE422AE7
:1055B00020EE030A30EE020AB7EE002A30EE020AAD
:1055C00021EE000ADEF80010C90360D5DEF81010E5
:1055D000C1F34621013101EE101AB8EE411A80EEF6
:1055E000011ABCEEC11A11EE102A0260DEF800109A
:1055F000890352D5DEF81010C1F30641013101EEE6
:10560000101AB8EE411A80EE011ABCEEC11A11EE62
:10561000102A4260DEF80010490344D5DEF810106D
:10562000C1F30661013101EE101AB8EE411A80EEA5
:10563000010ABCEEC00A10EE101A8160B0BD00BFB6
:105640005EF8243C4FF25452190FC0F6000202EBF0
:10565000810102EE10CA91ED001AB8EE422AB8EEAE
:10566000411A9FED123A81EE021A02EE105A20EE14
:10567000030AB8EE422A30EE020AB7EE002A30EEF4
:10568000020A20EE010ADEF80010C9039ED40022AF
:105690000260DEF800108903ACD400224260DEF81C
:1056A00000104903BAD400218160B0BD0000003968
:1056B0000024744BB0B540F6304EC4F2026EDEF8F2
:1056C0001450DEF80030DEF80010DEF80020DEF8BE
:1056D0001840D206E40804EAE272C1F3032103F0A1
:1056E00003036FF35F3201F1010C00EE102A6FF338
:1056F0005F25B8EE400ADFE803F003030B0B00BFA1
:105700005EF8281C09025DD4DEF8C4100B045BE0CF
:1057100001EE10CA9FED472AB8EE411ADEF81410C8
:1057200082EE011A6FF35F2102EE101A9FED403AEC
:10573000B8EE422A20EE030A30EE020AB7EE002A43
:1057400030EE020A21EE000ADEF80010C90360D52F
:10575000DEF81410C1F34621013101EE101AB8EE43
:10576000411A80EE011ABCEEC11A11EE102A026035
:10577000DEF80010890352D5DEF81410C1F306419B
:10578000013101EE101AB8EE411A80EE011ABCEE9A
:10579000C11A11EE102A4260DEF80010490344D508
:1057A000DEF81410C1F30661013101EE101AB8EEF3
:1057B000411A80EE010ABCEEC00A10EE101A816098
:1057C000B0BD00BF5EF8283C4FF25452190FC0F62E
:1057D000000202EB810102EE10CA91ED001AB8EE50
:1057E000422AB8EE411A9FED123A81EE021A02EEF9
:1057F000105A20EE030AB8EE422A30EE020AB7EE43
:10580000002A30EE020A20EE010ADEF80010C90379
:105810009ED400220260DEF800108903ACD400227E
:105820004260DEF800104903BAD400218160B0BDA7
:10583000000000390024744BB0B584B005460C4616
:1058400001F0090025F48051084305D024F0090037
:1058500005F48051084307D04FF26E70C0F6000087
:1058600040F20C7109F06EF94FF6FF71C0F20101C0
:105870000020491B70EB040136DBD5F1FF0170EB12
:10588000040173DA40F6FF71491B4FF0000171EB20
:10589000040280F2178143F6FF72521BA14180F28D
:1058A000D58185F48041214300F0468485F4004190
:1058B000214300F0A58385F48031214340F0288501
:1058C00040F60041C4F20261D1F8E40000F00702A2
:1058D000042A00F21F854BF68030DFE812F0D10376
:1058E000D2049704190565046FF07E41491B70EBE3
:1058F000040180F2A3806FF06041491B4FF000016A
:1059000071EB040280F210816FF00042521BA14142
:1059100080F2BA8185F00041214300F0258484F0B3
:105920000101294300F0868384F00801294340F0F7
:10593000EF8440F60042C4F20262D2F8E40011683B
:10594000890300F0404102D5002900F090841268DC
:10595000920340F19384B1F1004F40F08F8441F203
:105960000020C0F27A0004B0B0BD00BF691E64F12F
:105970000002D1F13F034FF0000373EB0202C0F0CD
:10598000DD81DFE811F041005702C5042302C504A0
:10599000C504C5043D02C504C504C504C504C50449
:1059A000C504C5047102C504C504C504C504C50405
:1059B000C504C504C504C504C504C504C504C5049F
:1059C000C504C504FF01C504C504C504C504C50458
:1059D000C504C504C504C504C504C504C504C5047F
:1059E000C504C504C504C504C504C504C504C5046F
:1059F000C504C504C504C504C504C504C504C5045F
:105A0000C504C5048D0200BF40F60040C4F2026028
:105A1000D0F8E01001F00301012900F0B78300295C
:105A200000F078830268022903D112F4806240F00A
:105A30001E84D0F8F000032900F05ABC4FF6FF7125
:105A4000C0F21F01491B4FF0000171EB0402C0F2CC
:105A500089804FF6FF72C0F20702521BA141C0F2CB
:105A60003D8185F40031214300F0F68285F48021E8
:105A7000214340F04D8440F60040C4F20260D0F86B
:105A8000F010D0F8F02001F44071920703D5B1F581
:105A9000807F00F0D780D0F8F020120103D5B1F557
:105AA000007F00F053820068B1F5407F00F40032BF
:105AB0004FF0000004BF4AF22010C0F2070000F0CF
:105AC000F3BB00BF40F2FF32521BA141C0F27C8009
:105AD00085F48071214300F0038285F40071214335
